:100000000C9487010C94AF010C94AF010C94AF01D8
:100010000C94AF010C94AF010C94AF010C94AF01A0
:100020000C94AF010C94AF010C94AF010C94AF0190
:100030000C94AF010C94AF010C94AF010C94AF0180
:100040000C9431050C94AF010C94AF010C94AF01EA
:100050000C94AF010C94AF010C94AF010C94AF0160
:100060000C94AF010C94AF012000000000000030A0
:10007000007C82827C00310042FE02000032004699
:100080008A92620033004492926C0034001C64FE39
:1000900004003500F292928C0036007C92924C0063
:1000A0003700C08E90E00038006C92926C003900EE
:1000B0006492927C006100042A2A1E006200FE12F3
:1000C000120C0063000C1212120064000C1212FEDB
:1000D0000065001C2A2A18006600103E5050006778
:1000E000000815151E006800FE101E0000690000C3
:1000F0002E0000006A0002012E00006B00FE0814B2
:1001000012006C0000FE0200006D001E100E100EAA
:100110006E001E10100E006F000C12120C0070000A
:100120001F12120C0071000C12121F0072001E0828
:10013000101000730012292512007400103E1200E6
:100140000075001C02021E007618040204180077D5
:1001500018061C0618007800120C0C120079001802
:1001600005051E007A0012161A120041007E8888CA
:100170007E004200FE92926C0043007C828244002A
:100180004400FE82827C004500FE9292820046007E
:10019000FE9090800047007C82925C004800FE1038
:1001A00010FE00490082FE8200004A000C0202FCA0
:1001B000004B00FE1028C6004C00FE020202004D5B
:1001C00000FE403040FE4E00FE403008FE4F007CF6
:1001D0008282827C5000FE9090600051007C828A76
:1001E000847A5200FE9894620053006492924C000C
:1001F000540080FE8080005500FC0202FC00560086
:10020000F00C020CF05700FE043804FE5800C6380B
:1002100038C60059C0201E20C0005A00869AB2C2BB
:10022000002C00010E0C00002E0000060600002528
:100230007254781E2A4E2100007A0000003F0020F0
:100240004A3000002D0010101010002B08083E0846
:1002500008002F00020C3040002A2214081422004B
:100260003A0000140000002200C000C00000232853
:10027000FE28FE28002800007C8200002900008261
:100280007C00003B0002240000007E004080408093
:10029000003B0002240000003D0028282828007CA4
:1002A0000000FE0000003E0082442810003C0010C8
:1002B0002844820040000000000000000000080008
:1002C000020100000304070000000000000000011C
:1002D00002040810204080010204081020010204DA
:1002E00008102004040404040404040202020202AC
:1002F0000203030303030300000000250028002B72
:100300000000000000240027002A00001002112431
:100310001FBECFEFD8E0DEBFCDBF11E0A0E0B1E05F
:10032000E4E7F1E102C005900D92AC32B107D9F7D4
:1003300021E0ACE2B1E001C01D92AA36B207E1F7BC
:1003400011E0C7E8D1E004C02197FE010E94B20885
:10035000C638D107C9F70E9416020C9431080C94D4
:100360000000CF93DF93CDB7DEB761E08CE291E080
:100370000E94AA0366E08CE291E00E947A039E014B
:100380002A5F3F4F47E060E070E08CE291E00E941E
:10039000E704DF91CF910895CF93DF93CDB7DEB718
:1003A000A7970FB6F894DEBF0FBECDBF84E0898358
:1003B00068E271E0CE0182960E94930220E030E074
:1003C00040E250E0BE016E5F7F4FCE0182960E94F8
:1003D000A8028DB79EB781970FB6F8949EBF0FBE47
:1003E0008DBFADB7BEB7119681E2FE013196019087
:1003F0000D928A95E1F70E94B1010FB6F894DEBF25
:100400000FBECDBFCE0182960E942502A7960FB6E1
:10041000F894DEBF0FBECDBFDF91CF910895089550
:1004200063E08CE291E00C94850308950E947B05C3
:100430000E9415020E940F02C0E0D0E00E94CC0191
:100440002097E1F30E940000F9CFFC0180819181A7
:100450000C94E206CF93DF93EC0188819981009799
:1004600011F00E94E206198218821D821C821B82F2
:100470001A82DF91CF9108950F931F93CF93DF934B
:10048000EC018B016F5F7F4F888199810E946B0720
:10049000009731F0998388831B830A8381E001C030
:1004A00080E0DF91CF911F910F910895CF93DF935B
:1004B000EC0188819981892B29F08A819B8186179B
:1004C000970760F4CE010E943C02882341F08C81A2
:1004D0009D81892B19F4E881F981108281E0DF91F7
:1004E000CF910895EF92FF920F931F93CF93DF93D5
:1004F000EC017B018A01BA010E945602811104C0FD
:10050000CE010E942A0207C01D830C83B701888197
:1005100099810E943D08CE01DF91CF911F910F91EB
:10052000FF90EF900895FC011182108213821282D5
:10053000158214826115710551F0FB0101900020B4
:10054000E9F73197AF01461B570B0C9472020895DF
:100550000F931F93CF93DF934115510519F1611547
:10056000710501F1DC011496ED91FC9115972E17A0
:100570003F0718F0FB01108215C0E21BF30BEA01E4
:100580002197EC17FD0708F4EF018B01FC01608156
:100590007181620F731FAE01C8010E944408C00F31
:1005A000D11F1882DF91CF911F910F910895CF92A3
:1005B000DF92EF92FF920F931F93CF93DF93EC01A3
:1005C000D42EE52EF22E162F106C61E08C810E9445
:1005D0001B0660E08D810E941B0608E060E08C81B4
:1005E0000E941B06612F61708D810E941B0661E0D5
:1005F0008C810E941B061695015081F70D2D1E2D32
:100600006801CF0CD11CC016D106B9F0F801E190F9
:100610008F0188E0F82E60E08C810E941B066E2D11
:1006200060788D810E941B0661E08C810E941B0610
:10063000EE0CFA94F110EFCFE6CF60E08C810E94CF
:100640001B0660E08D810E941B0661E08C810E9488
:100650001B0661E08D81DF91CF911F910F91FF907B
:10066000EF90DF90CF900C941B060F931F93CF93C6
:10067000DF93EC01062F61E08C810E941B0660E095
:100680008D810E941B0618E060E08C810E941B0691
:10069000602F61708D810E941B0661E08C810E9439
:1006A0001B060695115081F760E08C810E941B06A5
:1006B00060E08D810E941B0661E08C810E941B0618
:1006C00061E08D81DF91CF911F910F910C941B06FA
:1006D000FC0138969C01285E3F4FAF011192E21752
:1006E000F307E1F721E0FC012683178220E160E0B7
:1006F0000C94D702693018F4662321F001C068E039
:100700006150686060680C943503CF93DF93EC010F
:100710000E94210588818C8399819D8361E00E94DC
:10072000DF0561E08D810E94DF0561E08C810E9420
:100730001B0661E08D810E941B0660E4CE010E94D1
:10074000350365E0CE010E947A03CE01DF91CF919F
:100750000C946803FC01668308959F92AF92BF9248
:10076000CF92DF92EF92FF920F931F93CF93DF937D
:10077000EC01088D198D101611060CF06EC0FC01ED
:10078000389620E030E0822F0217130741F02F5FE8
:100790003F4F2131310509F4D6C01192F4CF2031F9
:1007A00009F4D1C0AB8DBC8D90E067E0F62E70E20D
:1007B000E72E692F70E06A177B070CF046C020E037
:1007C0008E01060F171F035E1F4FF29EA00111241A
:1007D00048595F4FFA013491303449F13491F801AE
:1007E000C0800C2C000CDD08E32FF0E0CE16DF06F5
:1007F000E1F4F7E02F9F9001112400E010E02F5F5B
:100800003F4FF901E00FF11FE859FF4FB4906E011F
:10081000C80ED11CF601B0868F5F803141F00F5FAA
:100820001F4F0630110569F702C02F5FCECFFA01C6
:100830004491403429F4FE01E60FF71FE58E9150F4
:100840009F5F803109F0B5CF7EC0FE01E80FF11D3A
:1008500010868F5F8031C9F776C0EB8CFC8C2AEF55
:10086000A7012403C001259F900D11240817190723
:1008700049F4FE013896CE0148961192E817F9071F
:10088000E1F761C022273327201B310BC90166E045
:1008900070E00E946708398F288F9B0190E047E045
:1008A000B42E50E2A52E2E153F050CF044C0912C1D
:1008B0006E01C20ED31E5DE1C50ED11CB99CD001E4
:1008C0001124AD0148595F4FFA016491603409F178
:1008D0006491F6017081E72F770FFF0B70E0E61748
:1008E000F707A1F4FD01E80FF11D87FDFA95E7591F
:1008F000FF4FD490BE01690F711DFB01D0869F5F31
:10090000903130F48F5F863069F702C09394D6CF70
:1009100080E0FA014491403431F4FE01E20FF31F0C
:10092000A58E215031092F5F3F4F903108F4BBCF86
:10093000198F088F08C0FE01E90FF11D10869F5F17
:100940009031C9F7F5CF8A8D082E000C990B27E05E
:1009500030E0281B390BAE01485F5F4FBE01685E77
:100960007F4FFA0137FD0EC08081022E01C0880F33
:100970000A94EAF78193E617F707B1F78E81882387
:1009800079F015C00797208130E0082E02C0359518
:1009900027950A94E2F72193E617F707A1F7EECF20
:1009A000FA01808180958193E617F707D1F720E15E
:1009B00060E0CE01DF91CF911F910F91FF90EF90FA
:1009C000DF90CF90BF90AF909F900C94D7020F9381
:1009D0001F93FC0181E08783148E138E038D148D89
:1009E000D901A00FB11F8C91DF01A00FB11F882387
:1009F00051F0033111053CF45D968C930F5F1F4F4E
:100A0000148F038FEBCF5D961C922AEF2003C00159
:100A1000219F900D11246817790734F0CB016131C3
:100A2000710514F080E190E0918F808F40310CF0DF
:100A30004FE047FD4FEF428FCF011F910F910C9474
:100A4000AD03DC01E62FF0E0EE0FFF1FEA5FFE4F83
:100A500080818C93818111968C93119712966C935F
:100A600008951F920F920FB60F9211242F933F9368
:100A70008F939F93AF93BF9380915E0190915F019D
:100A8000A0916001B091610130915D0123E0230FDD
:100A90002D3720F40196A11DB11D05C026E8230FB6
:100AA0000296A11DB11D20935D0180935E0190937C
:100AB0005F01A0936001B093610180916201909108
:100AC0006301A0916401B09165010196A11DB11D62
:100AD0008093620190936301A0936401B0936501D8
:100AE000BF91AF919F918F913F912F910F900FBE2A
:100AF0000F901F901895789484B5826084BD84B55A
:100B0000816084BD85B5826085BD85B5816085BD08
:100B1000EEE6F0E0808181608083E1E8F0E0108221
:100B2000808182608083808181608083E0E8F0E062
:100B3000808181608083E1EBF0E08081846080834C
:100B4000E0EBF0E0808181608083EAE7F0E0808183
:100B500084608083808182608083808181608083E3
:100B60008081806880831092C1000895833081F075
:100B700028F4813099F08230A1F008958730A9F0EF
:100B80008830B9F08430D1F4809180008F7D03C02B
:100B9000809180008F7780938000089584B58F774F
:100BA00002C084B58F7D84BD08958091B0008F7799
:100BB00003C08091B0008F7D8093B0000895CF93E3
:100BC000DF9390E0FC01E153FD4F2491FC01ED51D6
:100BD000FD4F8491882361F190E0880F991FFC01FB
:100BE000EF5FFC4FC591D491FC01E950FD4FA591F9
:100BF000B491611109C09FB7F89488812095822330
:100C00008883EC912E230BC0623061F49FB7F89477
:100C10008881322F309583238883EC912E2B2C935F
:100C20009FBF06C08FB7F894E8812E2B28838FBF13
:100C3000DF91CF9108951F93CF93DF93282F30E05A
:100C4000F901E554FD4F8491F901E153FD4FD49131
:100C5000F901ED51FD4FC491CC23C1F0162F811144
:100C60000E94B605EC2FF0E0EE0FFF1FE950FD4F9C
:100C7000A591B4919FB7F894111104C08C91D095AF
:100C8000D82302C0EC91DE2BDC939FBFDF91CF9184
:100C90001F9108950F931F93CF93DF938230910597
:100CA00010F482E090E0E0916801F091690120E0A9
:100CB00030E0A0E0B0E0309719F14081518102812D
:100CC000138148175907C8F08417950769F41097DE
:100CD00031F012960C93129713961C9327C0009331
:100CE00068011093690122C02115310519F04217DE
:100CF000530718F49A01BD01EF01DF01F801DBCFC2
:100D000021153105F9F0281B390B2430310580F409
:100D10008A819B816115710521F0FB019383828398
:100D200004C09093690180936801FE01329644C02B
:100D3000FE01E20FF31F8193919322503109398311
:100D400028833AC02091660130916701232B41F43A
:100D500020910201309103013093670120936601D5
:100D600020910001309101012115310541F42DB789
:100D70003EB74091040150910501241B350BE091D1
:100D80006601F0916701E217F307A0F42E1B3F0BF9
:100D90002817390778F0AC014E5F5F4F24173507ED
:100DA00048F04E0F5F1F5093670140936601819397
:100DB000919302C0E0E0F0E0CF01DF91CF911F916D
:100DC0000F910895CF93DF93009709F481C0FC0140
:100DD000329713821282A0916801B0916901109735
:100DE00081F420813181820F931F2091660130911F
:100DF00067012817390751F5F0936701E093660101
:100E000067C0ED0120E030E0CE17DF0740F44A81F3
:100E10005B819E0141155105F1F0EA01F5CFD383C5
:100E2000C28340815181840F951FC817D90759F497
:100E300088819981840F951F0296918380838A818E
:100E40009B81938382832115310529F4F0936901F5
:100E5000E09368013DC0E901FB83EA834991599120
:100E6000C40FD51FEC17FD0761F480819181840FB9
:100E7000951F0296E90199838883828193819B83E0
:100E80008A83E0E0F0E012968D919C911397009791
:100E900019F0FD01DC01F7CF8D919C9111979D0117
:100EA0002E5F3F4F820F931F2091660130916701A3
:100EB0002817390769F4309729F4109269011092C4
:100EC000680102C013821282B0936701A093660189
:100ED000DF91CF910895A0E0B0E0E1E7F7E00C9456
:100EE0007F08EC01009721F4CB010E944A06B4C0B0
:100EF000FC01E60FF71F9C0122503109E217F307AE
:100F000008F4A8C0D9010D911C9111970617170775
:100F1000B0F00530110508F49BC0C801049786178E
:100F2000970708F495C002501109061B170B01938F
:100F300011936D937C93CF010E94E20689C05B01FF
:100F4000A01AB10A4C01800E911EA0916801B091C7
:100F50006901612C712CE12CF12C109709F446C029
:100F60008D919C911197A815B905B1F56C0142E0DE
:100F7000C40ED11CCA14DB0478F14C018A189B08FA
:100F8000640142E0C40ED11C1296BC9012971396D5
:100F9000AC91B5E0CB16D10440F0B282A38391822C
:100FA0008082D9016D937C9309C00E5F1F4F800F23
:100FB000911FF90191838083EB2DFA2FE114F10445
:100FC00031F0D7011396FC93EE93129741C0F09342
:100FD0006901E09368013CC06816790608F43C0199
:100FE0007D0112960D90BC91A02DB7CF8091660126
:100FF0009091670188169906E1F466167706C8F4A1
:101000008091000190910101009741F48DB79EB746
:101010004091040150910501841B950BE817F907D5
:10102000C8F4F0936701E0936601F901718360836E
:101030000FC0CB010E944A067C01009759F0A8011D
:10104000BE010E943408CE010E94E206C70104C01E
:10105000CE0102C080E090E0CDB7DEB7EEE00C94A8
:101060009B08F8940C94B808FB01DC0102C00190C5
:101070000D9241505040D8F70895FB01DC010190DA
:101080000D920020E1F70895FB01DC014150504032
:1010900048F001900D920020C9F701C01D92415007
:1010A0005040E0F70895AA1BBB1B51E107C0AA1FDF
:1010B000BB1FA617B70710F0A61BB70B881F991FF9
:1010C0005A95A9F780959095BC01CD01089597FB9D
:1010D000072E16F4009407D077FD09D00E9453081C
:1010E00007FC05D03EF4909581959F4F089570952B
:1010F00061957F4F08952F923F924F925F926F922A
:101100007F928F929F92AF92BF92CF92DF92EF9297
:10111000FF920F931F93CF93DF93CDB7DEB7CA1B18
:10112000DB0B0FB6F894DEBF0FBECDBF09942A8843
:10113000398848885F846E847D848C849B84AA84EB
:10114000B984C884DF80EE80FD800C811B81AA8178
:10115000B981CE0FD11D0FB6F894DEBF0FBECDBF43
:10116000ED010895EE0FFF1F0590F491E02D099415
:04117000F894FFCF21
:1011740000006A01200000000B0C090A10110E0F78
:1011840000000814150D08140607050400000000EB
:0C1194000000000000000000686921005D
:00000001FF
